:03000000020208F1
:0C020800787FE4F6D8FD75812102022900
:1001E500003F0006005B004F0066006D007D0007C4
:0401F500007F008007
:030229000200F9D7
:0A021F00A2A0B392A01201F980F62C
:0B021400E4F5A063A0FF1201F980F8E0
:1001B000E4F520F52175A0FEE4F520F521AF2174CA
:1001C00001A807088002C333D8FCF4F5A01201F996
:1001D0000521E52170020520C39408E52064809480
:0501E0008040DA80D32D
:1000F90078087C007D007BFF7A0179E57E007F141A
:100109001200D3E4F51EF51FE4F51EF51FE51E7078
:1001190054E51FB40800504D900128F828287302AF
:10012900014002014402014802014C02015002014E
:1001390058020160020168D2A4800ED2A48012D2B2
:10014900A48016D2A4801AC2A4D2A3D2A28016C2B5
:10015900A4D2A3C2A2800EC2A4C2A3D2A28006C204
:10016900A4C2A3C2A2E4F51CF51DE51D25E02408DF
:10017900F808E6F5801201F9051DE51D7002051C58
:10018900C3940AE51C6480948040DFE4F580051F70
:10019900E51F7002051EC39408E51E648094805013
:0701A900030201160201111F
:0401F9007F507EC3F2
:0B01FD00EF1FAC0670011E4C70F622D4
:10000300E709F608DFFA8046E709F208DFFA803EDF
:1000130088828C83E709F0A3DFFA8032E309F608CC
:10002300DFFA8078E309F208DFFA807088828C8334
:10003300E309F0A3DFFA806489828A83E0A3F608E8
:10004300DFFA805889828A83E0A3F208DFFA804CC2
:1000530080D280FA80C680D4806980F28033801099
:1000630080A680EA809A80A880DA80E280CA803302
:1000730089828A83ECFAE493A3C8C582C8CCC5837A
:10008300CCF0A3C8C582C8CCC583CCDFE9DEE7804A
:100093000D89828A83E493A3F608DFF9ECFAA9F0C9
:1000A300EDFB2289828A83ECFAE0A3C8C582C8CC1F
:1000B300C583CCF0A3C8C582C8CCC583CCDFEADE38
:1000C300E880DB89828A83E493A3F208DFF980CC9A
:1000D30088F0EF60010E4E60C388F0ED2402B40493
:1000E3000050B9F582EB2402B4040050AF2323453A
:0600F3008223900053730C
:00000001FF
